:100000000C942A000C943F000C943F000C943F0089
:100010000C943F000C943F000C943F000C943F0064
:100020000C943F000C943F000C943F000C943F0054
:100030000C943F000C943F000C943F000C943F0044
:100040000C943F000C943F000C943F000C943F0034
:100050000C943F0011241FBECFE5D8E0DEBFCDBF1A
:1000600010E0A0E6B0E0E8E5F6E002C005900D92F1
:10007000AA3FB107D9F70E94F8020C942A030C9406
:100080000000823071F1833020F4813009F08AC0A1
:1000900007C0833009F446C0843009F083C062C0D1
:1000A00082E064E00E944E02882311F487E3089501
:1000B00082E065E00E944E02882311F488E30895EF
:1000C00082E066E00E944E02882311F489E30895DD
:1000D00082E067E00E944E02882309F063C08FE24D
:1000E000089582E064E00E944E02882311F484E3C4
:1000F000089582E065E00E944E02882311F485E3B2
:10010000089582E066E00E944E02882311F486E39F
:10011000089582E067E00E944E02882309F042C001
:1001200088E5089582E064E00E944E02882311F47D
:1001300081E3089582E065E00E944E02882311F475
:1001400082E3089582E066E00E944E02882311F463
:1001500083E3089582E067E00E944E02882311F550
:100160008DE2089582E064E00E944E02882311F43B
:1001700084E2089582E065E00E944E02882311F433
:1001800080E3089582E066E00E944E02882311F425
:100190008DE3089582E067E00E944E02882311F407
:1001A0008BE2089580E0089582E06EEF0E941901CD
:1001B00081E00E9441008823C9F482E06DEF0E9433
:1001C000190182E00E944100882381F482E06BEFF4
:1001D0000E94190183E00E944100882339F482E0E3
:1001E00067EF0E94190184E00E944100089582E0B7
:1001F0006FE00E94000182E06FEF0E9419010895F4
:10020000813059F0813028F0823059F0833081F408
:100210000CC0E9E3F0E061830895E6E3F0E0618378
:100220000895E3E3F0E061830895E0E3F0E06183A3
:100230000895813059F0813028F0823059F08330B0
:1002400081F40CC0E9E3F0E062830895E6E3F0E0B6
:1002500062830895E3E3F0E062830895E0E3F0E071
:1002600062830895813051F0813030F0823041F066
:10027000833041F080E0089589B3089586B30895EE
:1002800083B3089580B30895442321F0413009F0E9
:100290007FC042C08130B1F0813030F0823001F156
:1002A000833009F075C02AC0E9E3F0E0218181E0E4
:1002B00090E002C0880F991F6A95E2F7809582232B
:1002C00081830895E6E3F0E0218181E090E002C0BF
:1002D000880F991F6A95E2F780958223818308959C
:1002E000E3E3F0E0218181E090E002C0880F991FF4
:1002F0006A95E2F78095822381830895E0E3F0E038
:10030000218181E090E002C0880F991F6A95E2F791
:1003100080958223818308958130A1F0813028F077
:100320008230E9F08330A1F527C0E9E3F0E02181D4
:1003300081E090E002C0880F991F6A95E2F7282BB0
:1003400021830895E6E3F0E0218181E090E002C09E
:10035000880F991F6A95E2F7282B21830895E3E31C
:10036000F0E0218181E090E002C0880F991F6A953A
:10037000E2F7282B21830895E0E3F0E0218181E07A
:1003800090E002C0880F991F6A95E2F7282B21831D
:100390000895442321F0413009F07FC042C08130EC
:1003A000B1F0813030F0823001F1833009F075C056
:1003B0002AC0E9E3F0E0228181E090E002C0880FEA
:1003C000991F6A95E2F78095822382830895E6E378
:1003D000F0E0228181E090E002C0880F991F6A95C9
:1003E000E2F78095822382830895E3E3F0E022819F
:1003F00081E090E002C0880F991F6A95E2F780952E
:10040000822382830895E0E3F0E0228181E090E09E
:1004100002C0880F991F6A95E2F780958223828334
:1004200008958130A1F0813028F08230E9F08330E6
:10043000A1F527C0E9E3F0E0228181E090E002C06D
:10044000880F991F6A95E2F7282B22830895E6E327
:10045000F0E0228181E090E002C0880F991F6A9548
:10046000E2F7282B22830895E3E3F0E0228181E084
:1004700090E002C0880F991F6A95E2F7282B22832B
:100480000895E0E3F0E0228181E090E002C0880F6F
:10049000991F6A95E2F7282B22830895813091F005
:1004A000813030F08230C1F0833001F180E0089576
:1004B00029B381E090E002C0880F991F6A95E2F7A6
:1004C0008223089526B381E090E002C0880F991F2F
:1004D0006A95E2F78223089523B381E090E002C099
:1004E000880F991F6A95E2F78223089520B381E06F
:1004F00090E002C0880F991F6A95E2F78223089561
:1005000080EBE6E3F0E0818380E58DB90895E6E3D2
:10051000F0E081818F71818381818068818380E4B3
:100520008DB908958FB9EEE2F0E080818823ECF771
:100530000895EEE2F0E080818823ECF78FB1089512
:10054000E0E4F0E0108283E389B988E18AB986E8C3
:1005500080830895EBE2F0E080818823ECF78CB192
:100560000895982FEBE2F0E0808185FFFDCF9CB9E4
:100570000895CF93DF93FC019081992361F0ABE262
:10058000B0E0CCE2D0E08C9185FFFDCF98839181E3
:1005900031969923C1F7DF91CF91089580E002C091
:1005A0000E94D4008033E1F38823D1F30E949202A9
:1005B00028EB3BE048EC50E0CA010197F1F72150ED
:1005C0003040D1F7089580E690E00E94B90284E8B7
:1005D00090E00E94B90285EA90E00E94B90280ECA6
:1005E00090E00E94B90285EE90E00E94B902089561
:1005F000DF92EF92FF920F931F930E9480020E945E
:10060000F7000E94A0020E94E30200E010E0FF2435
:10061000DD246894D1F8EE24E394112319F40E94A8
:10062000AA02082F013351F4FF2019F481E30E943C
:100630009202F3940E94CE021E2DEFCF023369F78F
:10064000FF2019F482E30E949202F3940E94CE02EA
:080650001D2DE3CFF894FFCF4C
:1006580020202057656C636F6D6520746F20746867
:10066800652041544D205361666520537973746544
:100678006D200D0043686F6F73652066726F6D2083
:10068800746865206F7074696F6E732042656C6F53
:10069800773A200D004F7074696F6E2031203A2030
:1006A8004F70656E20746865204C6F636B200D0079
:1006B8004F7074696F6E2032203A204368616E670C
:1006C800652043757272656E742050617373776F1D
:1006D8007264200D00456E74657220596F75722022
:0A06E8004F7074696F6E3A20000035
:00000001FF
