:100000000C942A000C943F000C943F000C943F0089
:100010000C943F000C943F000C943F000C943F0064
:100020000C943F000C943F000C943F000C943F0054
:100030000C943F000C943F000C943F000C943F0044
:100040000C943F000C943F000C943F000C943F0034
:100050000C943F0011241FBECFE5D8E0DEBFCDBF1A
:1000600011E0A0E6B0E0ECEFF9E002C005900D92DF
:10007000A834B107D9F70E9490030C94FC040C94A7
:10008000000080E061E040E00E94320280E060E039
:1000900040E00E94320208958A3021F0843109F054
:1000A0003EC01FC080E060E041E00E94320220E1DB
:1000B00037E248EC50E0CA010197F1F72150304097
:1000C000D1F780E061E040E00E94320220E137E2B7
:1000D00048EC50E0CA010197F1F721503040D1F7C8
:1000E000089580E061E041E00E94320220E137E2C1
:1000F00048EC50E0CA010197F1F721503040D1F7A8
:1001000080E060E040E00E94320220E137E248EC0B
:1001100050E0CA010197F1F721503040D1F708951E
:1001200080E06FEF0E94690180E060E00E94820140
:1001300008950895FF920F931F93F82E83E062E0D5
:1001400041E00E94320200E117E2C8010197F1F795
:1001500082E06F2D0E948201C8010197F1F783E0D0
:1001600063E040E00E943202C8010197F1F783E0AA
:1001700063E041E00E943202C8010197F1F783E099
:1001800063E040E00E943202C8010197F1F71F913D
:100190000F91FF900895CF93DF93FC018081882316
:1001A00039F0EF010E949A00898121968823D1F7C6
:1001B000DF91CF9108951F93182F83E062E040E014
:1001C0000E94320282E0612F0E94820183E063E09C
:1001D00040E00E94320283E063E041E00E9432028C
:1001E00083E063E040E00E9432021F91089580E1C5
:1001F0000E94DB0080E20E949A0080E10E94DB0006
:100200000895CF93DF93EA01882341F4603178F4B5
:10021000862F8F7080680E94DB0009C0813039F41E
:10022000603128F4862F8F70806C0E94DB00CE0135
:100230000E94CB00DF91CF9108950F931F93CF932E
:10024000DF938B01883090F4880F880F880F805CD3
:100250000E94DB00C0E0D0E0F801EC0FFD1F8081C0
:100260000E949A002196C830D105B1F7DF91CF9155
:100270001F910F9108950F931F9382E06FEF0E94DB
:10028000690100E117E2C8010197F1F783E062E03C
:1002900041E00E94AD01C8010197F1F783E063E0FE
:1002A00041E00E94AD01C8010197F1F788E30E9487
:1002B000DB0087E00E94DB008CE00E94DB0081E035
:1002C0000E94DB0080E29EE40197F1F71F910F91FD
:1002D0000895813059F0813028F0823059F0833010
:1002E00081F40CC0E9E3F0E061830895E6E3F0E017
:1002F00061830895E3E3F0E061830895E0E3F0E0D3
:1003000061830895813059F0813028F0823059F0AE
:10031000833081F40CC0E9E3F0E062830895E6E302
:10032000F0E062830895E3E3F0E062830895E0E3A0
:10033000F0E062830895813051F0813030F08230F6
:1003400041F0833041F080E0089589B3089586B389
:10035000089583B3089580B30895442321F0413074
:1003600009F07FC042C08130B1F0813030F082307E
:1003700001F1833009F075C02AC0E9E3F0E0218182
:1003800081E090E002C0880F991F6A95E2F780959E
:10039000822381830895E6E3F0E0218181E090E00B
:1003A00002C0880F991F6A95E2F7809582238183A6
:1003B0000895E3E3F0E0218181E090E002C0880F3E
:1003C000991F6A95E2F78095822381830895E0E37F
:1003D000F0E0218181E090E002C0880F991F6A95CA
:1003E000E2F780958223818308958130A1F08130E6
:1003F00028F08230E9F08330A1F527C0E9E3F0E08E
:10040000218181E090E002C0880F991F6A95E2F790
:10041000282B21830895E6E3F0E0218181E090E03C
:1004200002C0880F991F6A95E2F7282B218308954F
:10043000E3E3F0E0218181E090E002C0880F991FA2
:100440006A95E2F7282B21830895E0E3F0E021810B
:1004500081E090E002C0880F991F6A95E2F7282B8F
:1004600021830895442321F0413009F07FC042C028
:100470008130B1F0813030F0823001F1833009F009
:1004800075C02AC0E9E3F0E0228181E090E002C07B
:10049000880F991F6A95E2F78095822382830895D9
:1004A000E6E3F0E0228181E090E002C0880F991F2E
:1004B0006A95E2F78095822382830895E3E3F0E072
:1004C000228181E090E002C0880F991F6A95E2F7CF
:1004D0008095822382830895E0E3F0E0228181E029
:1004E00090E002C0880F991F6A95E2F780958223F9
:1004F000828308958130A1F0813028F08230E9F0C4
:100500008330A1F527C0E9E3F0E0228181E090E0AB
:1005100002C0880F991F6A95E2F7282B228308955D
:10052000E6E3F0E0228181E090E002C0880F991FAD
:100530006A95E2F7282B22830895E3E3F0E0228115
:1005400081E090E002C0880F991F6A95E2F7282B9E
:1005500022830895E0E3F0E0228181E090E002C090
:10056000880F991F6A95E2F7282B2283089581301E
:1005700091F0813030F08230C1F0833001F180E0C1
:10058000089529B381E090E002C0880F991F6A9511
:10059000E2F78223089526B381E090E002C0880F3D
:1005A000991F6A95E2F78223089523B381E090E0D2
:1005B00002C0880F991F6A95E2F78223089520B33D
:1005C00081E090E002C0880F991F6A95E2F78223CC
:1005D000089580EBE6E3F0E0818380E58DB908952E
:1005E000E6E3F0E081818F7181838181806881837E
:1005F00080E48DB908958FB9EEE2F0E08081882320
:10060000ECF70895EEE2F0E080818823ECF78FB1FB
:100610000895E0E4F0E0108283E389B988E18AB9C3
:1006200086E880830895EBE2F0E080818823ECF790
:100630008CB10895982FEBE2F0E0808185FFFDCF2B
:100640009CB908950F931F93CF93DF93EC018B0117
:1006500020ED37E048EC50E0CA010197F1F7215056
:100660003040D1F781E00E94DB0080E29EE40197F8
:10067000F1F7CE010E94CB0080EC0E94DB00C801A4
:100680000E94CB0020E137E248EC50E0CA0101971C
:10069000F1F721503040D1F7DF91CF911F910F91A9
:1006A000089581E00E94DB0080E690E00E94CB008C
:1006B0008AE00E944C0084E10E944C0080E062E0ED
:1006C00041E00E9432028AE00E944C0084E10E94D4
:1006D0004C008AE00E944C0080E063E041E00E9410
:1006E00032020E94410081E00E94DB0080E29EE431
:1006F0000197F1F788E690E00E94CB0080EC0E9421
:10070000DB0086E790E00E94CB0028EB3BE048EC62
:1007100050E0CA010197F1F721503040D1F7089518
:100720002F923F924F925F926F927F928F929F9201
:10073000AF92BF92CF92DF92EF92FF920F931F93EF
:10074000DF93CF93CDB7DEB769970FB6F894DEBFCE
:100750000FBECDBF0E9490000E94F0020E943B019C
:10076000DE011696E2E4F1E085E001900D92815001
:10077000E1F7BB24198A77246624CC24188A10E078
:1007800000E0FF24EE24DD240F2EF6E08F2E9924C6
:10079000F02D8C0E9D1E0F2EF2E82F2EF0E03F2E36
:1007A000F02D0F2EFBE04F2E5524F02D4C0E5D1E2C
:1007B0008DE890E08A8B9B8B80ED90E08C8B9D8BFD
:1007C0008EEB90E08E8B9F8B8FEC90E0888F998FD3
:1007D00004C00F2EF1E3BF2EF02D0E940203982FCC
:1007E0008153823030F48989882319F4B92E91E03D
:1007F000998B82E3B81609F0A7C0CC2009F075C028
:10080000AA24FF2029F4C1016A897B890E9422035E
:1008100093E0E91609F588E990E069EA70E00E9442
:10082000220380E090E069960FB6F894DEBF0FBE19
:10083000CDBFCF91DF911F910F91FF90EF90DF908F
:10084000CF90BF90AF909F908F907F906F905F9070
:100850004F903F902F9008950E940203843221F41C
:100860000E94F70011500BC0803349F0882339F003
:10087000F201E10FF11D80830E949A001F5F153085
:10088000C1F481E00E94DB0020E030E0022FF201A1
:10089000E20FF31FD401A20FB31F90818C91981720
:1008A00011F0D39406C00F5F2F5F3F4F2530310505
:1008B00069F7053041F48E899F89688D798D0E9492
:1008C0002203CC24C39481E0D81611F0F3940AC01B
:1008D0008C899D896DED70E00E942203E3941A2DAE
:1008E000FA2CDA2CCC2009F48CCF772029F4C10122
:1008F00065EE70E00E9422030E940203843231F40C
:100900000E94F70098899150988B0EC0803361F057
:10091000882351F0F4019889E90FF11D80830E942A
:100920009A0088898F5F888B9889953011F073942D
:100930000BC080EF90E06DEF70E00E94220381E039
:100940000E94DB00772406C081E3B81609F045CF8A
:10095000772029F4C10168E071E00E9422037394BA
:100960000E940203843221F40E94F7006A940EC0B0
:10097000803361F0882351F0E1E0F0E0EC0FFD1FDF
:10098000E60DF11D80830E949A00639495E069163C
:1009900009F01FCF20E030E0422FE1E0F0E0EC0F63
:1009A000FD1FE20FF31FD401A20FB31F90818C91A2
:1009B000981731F44F5F2F5F3F4F2530310561F7B6
:1009C000453069F483E191E062E271E00E94220324
:1009D0000E9451030F2EF1E3BF2EF02DFECE82E3D5
:1009E00091E06DED70E00E942203772466240F2EC3
:0C09F000F1E3BF2EF02DF1CEF894FFCF04
:1009FC002830295F28302900436F6F6C20546865BC
:100A0C0020646F6F7200686173206F70656E65642F
:100A1C002E00456E74657220596F7572004F6C64B0
:100A2C0020506173733A200033204661696C656411
:100A3C0020456E74726965730053797374656D200B
:100A4C0077696C6C2073687574646F776E00436F94
:100A5C0072726563742050617373776F72640000F7
:100A6C0050617373776F7264204E6F7400436F72B2
:100A7C0072656374004E657720506173733A200081
:100A8C004E65772050617373776F72640041737396
:100A9C0069676E656420210050617373776F7264AF
:100AAC003A200052696768742050617373776F72D3
:100ABC006400446F6F722057696C6C204F70656EC8
:100ACC002E0050617373776F7264204973204E6FE0
:080ADC0074003132333435009F
:00000001FF
